:100D4200543D25640D0A00544F46463D25640D0A64
:080D520000443D25660D0A0076
:100CBB00014C01014D00014E0002220000042400F2
:0B0CCB000000000628000000000000F0
:100D8300758901E4F58CF58AD2A9D288D2A8D2AFAD
:010D9300223D
:03000B00020D944F
:100D9400C0E03088080523E52370020522D0E03244
:03000300020D29C2
:100D2900C0E0C0D0D28C308804054E054DE54CB4E6
:090D39000202C288D0D0D0E032E1
:100A6700120D83120CF3E54D64026003020B17E5C8
:100A77004E64026003020B17C28CC2AFAE22AF23D3
:100A8700EE3395E0FDFCE4FBFA7901F8120565A861
:100A970004A905AA06AB07AF8CEFFEAD8A7C00E47C
:100AA7002DFFEC3EFEE4FDEB2FFFEA3EFEED39FDA8
:100AB700EC38FC1201B47B1F7A85798B783F1200E2
:100AC7000E1201F2E54C25E02428F8A60608A60731
:100AD7007552FF75530D755442E54C25E02428F8EF
:100AE700E6F55508E6F5567B007A00792E1206548E
:100AF7007B007A00792E120CD7E4F522F523F58CCA
:100B0700F58AD288754C02F54DF54ED2AF020A6DC3
:100B1700308803020A6D308903020A6DC28CC2AFA6
:100B2700AE22AF23EE3395E0FDFCE4FBFA7901F842
:100B3700120565A804A905AA06AB07AF8CEFFEADA1
:100B47008A7C00E42DFFEC3EFEE4FDEB2FFFEA3E3E
:100B5700FEED39FDEC38FC1201B47B1F7A85798BE9
:100B6700783F12000E1201F2E54C25E02428F8A682
:100B77000608A6077552FF75530D755449E54C25B0
:100B8700E02428F8E6F55508E6F5567B007A007963
:100B97002E1206547B007A00792E120CD7AC2AADA0
:100BA7002BEC1201B9C004C005C006C007AC2CADC0
:100BB7002DEC1201B9D003D002D001D000120117D9
:100BC7008F278E268D258C247552FF75530D7554EE
:100BD700538F588E578D568C557B007A00792E127D
:100BE70006547B007A00792E120CD7E4F522F52300
:100BF700F58CF58AD288F54CF54DF54ED2AF020A41
:010C07006D7F
:100D5A00EF1FAC0670011E4C600B007D027CC7DCE5
:050D6A00FEDDFC80EB42
:010D6F002261
:100CF30075985043878053890F438920758BFA85F4
:0B0D03008B8DC2ABD28EC2ACD2AF22EF
:100D0E0043878075985053890F438920758BF975E9
:0B0D1E008DF9C2ABD28EC2ACD2AF2266
:0E0DA400C2ACC2998F993099FDC299D2AC228F
:100D700012050DFF600C120DA4740129F9E43AFA72
:030D800080EE22E0
:100CD70012050DFF600C120DA4740129F9E43AFA0C
:0C0CE70080EE7F0D120DA47F0A020DA408
:10000E00EC4D6011E8497017ED33EC3304600DE4EC
:10001E00FCFFFEFD22E933E8330470F802025E12A3
:10002E00022958046009E4CC2481500628500902A4
:10003E000268284003020265C0E0EB4A7044B980B2
:10004E0006D0E0FB020254EF4E701CBD8008EBFFA1
:10005E00EAFEE9FD80EBE98DF0A4FEE5F00200F783
:10006E00E9CDF9EAFEEBFFEF89F0A4FCE5F0CE89CD
:10007E00F0A42EFFE435F0CD89F0A42DFEE435F08A
:10008E008067EF4E7005BD80D780C3EF8BF0A4ACB8
:10009E00F0EE8BF0A42CFCE435F0F8EF8AF0A42CF3
:1000AE00E5F038FCE433CB8DF0A42CFCE5F03BF806
:1000BE00EE8AF0A42CFCE5F038F8E433CF89F0A4F6
:1000CE002CFCE5F038CF3400CE89F0A42FFFE5F0FC
:1000DE003EFEE433C98DF0A42EFEE5F039CD8AF054
:1000EE00A42FFFE5F03EFEE43DFD33D0E0FB5007CC
:1000FE000BBB000F020268EC2CFCEF33FFEE33FE5D
:06010E00ED33FD0202408A
:10011400020268EC5D046005E85904700302025EA3
:10012400120229580460F6EC4860F2EC7004FDFEFB
:10013400FF22C860DB2481C85009C39860025006BE
:100144000202659850CAF582E9294B4A7005AB82D0
:1001540002025475F0007C1A7880C3EF9BEE9AED8E
:1001640099400DC3EF9BFFEE9AFEED99FDE842F036
:10017400DC23ACF0D0E0FFD0E0FED0E0FDAB822089
:10018400E7101BEB60BAEC2CFCEF33FFEE33FEED13
:1001940033FD020240E803F830E705C0F075F000D3
:1001A400EF2FFFEE33FEED33FD40B830E7C280AAF7
:1001B40075F020800E75F010800575F0087D007EC6
:1001C400007F003392D530D5031205B4EC334010D0
:1001D400EF33FFEE33FEED33FDEC33FCD5F0ED22CF
:0E01E400E5F0247EA2D513CC92E7CDCEFF220B
:1001F200EDD2E7CD33EC3392D524814006E4FFFE05
:10020200FDFC22FCE4CFCECDCC24E0501174FF8063
:10021200EDC3CC13CCCD13CDCE13CECF13CF047000
:07022200F030D5DE0205B447
:1005F800E5662452F8E6056622784F3007027852FD
:10060800E475F0011205C202050D2000EB7F2ED221
:10061800008018EF540F2490D43440D4FF30040BDA
:10062800EF24BFB41A0050032461FFE56760021588
:1006380067056AE56A7002056930070D784FE47549
:10064800F0011205C2EF020553020C947403D2079D
:100658008003E4C207F5668B4F8A508951E4F56739
:10066800F569F56AE56760077F2012063380F5753E
:1006780068FFC201C200C202C203C205C206C208A4
:10068800120601FF700D3007057F00120644AF6A9D
:10069800AE6922B4255FC2D5C204120601FF24D078
:1006A800B40A00501A75F00A786730D50508B6FF05
:1006B8000106C6A426F620D5047002D20380D924E8
:1006C800CFB41A00EF5004C2E5D204020931D201B6
:1006D80080C6D20080C0D20280BCD2D580BAD205F2
:1006E80080B47F201206332002077401B5670040EA
:1006F800F11205F8FF12063302066CD208D2068002
:10070800951205F8FB1205F8FA1205F8F94A4B702C
:100718000679287A0A7BFF20022EE567602A7E0088
:100728008E8275830012052660060EEE656870F0ED
:10073800C2D5EBC0E0EAC0E0E9C0E0EE120991D012
:10074800E0F9D0E0FAD0E0FB12050DFF60AAEBC09B
:10075800E0EAC0E0E9C0E0120633D0E02401F9D0B5
:10076800E03400FAD0E0FBE5680460DCD568D980A5
:1007780087D20280A212097460F7E568700104123A
:100788000273A968600DE568600914F568120A1B10
:10079800EF60F3EA30E702F404C3995077EAF425EE
:1007A800680430E701E404F568800D12097460C13B
:1007B800EA05682568120273EA7865F630E701E40D
:1007C800256804D5680420050114120991E4C0E0E5
:1007D800120A1B7865E6601320E70714F612061B59
:1007E800802204F6D0E014C0E07F0012061BE56802
:1007F80060071206121568800B300503120612D026
:10080800E002066CD0E00480C512097460A0E568B7
:10081800041202737865EAF6E568200502600104AF
:050828002404120991F7
:10082D0074FF04C0E0120A1B12061BE568200502C6
:10083D006003120612D0E0B568E87F4512062578F0
:10084D0065E67F2B30E7047F2DF404C0E0120633FC
:10085D00D0E075F00A84C0F012061CD0E012061C20
:10086D0002066C791080027908C206C2088008D28F
:10087D00D5790A8004790AC2D5E568047002F56855
:10088D00E4FAFDFEFF1205F8FC7B082001131205AA
:10089D00F8FD7B1030000A1205F8FE1205F8FF7BFB
:1008AD0020EC3382D592D55013C3E43000069FFF60
:1008BD00E49EFEE42001039DFDE49CFCE4CBF8C224
:1008CD0001EC700CCFCECDCCE824F8F870F3801786
:1008DD00C3EF33FFEE33FEED33FDEC33FCEB33FBB7
:1008ED00994002FB0FD8E9EB300105F8D0E0C44880
:1008FD00B201C0E00AEC4D4E4F78207B0070C2EA89
:10090D00B5680040BCC0E0120993D0F0D0E02001E2
:10091D0004C4C0E0C4B201C0F012061CD0F0D5F082
:10092D00EB02066C1205D207095308705806DA4C13
:10093D0006D64208744F087C44087C4906EF4308EC
:10094D00825507B346081145077D470A485006DE14
:10095D002D06E22E07052B06E6230703200A312A72
:10096D00069E48000006FDE568B4FF037568061293
:10097D0005F8FC1205F8FD1205F8FE1205F8FF78D2
:10098D005E0202A2790AA2D5200314300509B9101E
:10099D00020404B9080104A2D52006025001042066
:1009AD0002689202B567005034C0E07F2030031911
:1009BD007F30A20272067205500F1209EAC202C2FE
:1009CD0006C205C2087F30800F300503E9C0E01272
:1009DD000633300503D0E0F9D0E0B567CC3005170C
:1009ED007F30B9100C1206337F583004077F7880A2
:1009FD0003B908031206333002057F2D0206337F3B
:100A0D00202008F87F2B2006F322920280CF7F0052
:100A1D00B407005005245EF8E6FF22286E756C6C55
:100A2D002900D2011205F83001F8C201786730D5DE
:100A3D000108F602069E2D504349581205F824036D
:100A4D00B405004001E4900A4393120624743A124F
:0A0A5D000624D20375670402087036
:10022900E9D2E7C933E833F892D5EDD2E7CD33EC1B
:0702390033FC5002B2D52294
:10024000EC30E7100FBF000C0EBE00080DBD00041F
:100250000BEB6014A2D5EB13FCED92E7FD2274FFCB
:10026000FCFDFEFF22E480F8A2D574FF13FC7D8024
:03027000E480EF38
:10027300F920E72824F950037907E4F42402FB1852
:10028300DBFDE624FB5014E9600DE4F618E604F602
:0F029300B40A08E4F6D9F57401F60A22C2D5229E
:1002A200ED33EC3392D5FA602AB4FF33EDC2E77B2B
:1002B200FF60067A0279C7E4227A0279D020D50457
:1002C2007A0279CB224E614E002B494E46002D49CF
:1002D2004E4600E47A08F608DAFC7B00740722E84E
:1002E200C0E0ECC0E0EDC0E0EEC0E0EFC0E0EA75D7
:1002F200F010A4CAABF075F04DA42BFBE435F0FC72
:10030200EA2410FAEB34C5FBEC34D9FCEDC2E7FF6A
:1003120075F056A4F42411C5F0F434C58FF0A42A64
:10032200E5F03BE43CF620E7141204CDD0E0FFD028
:10033200E0FED0E0FDD0E0FC1201178014F40412BC
:1003420004CDD0E0FFD0E0FED0E0FDD0E0FC120012
:100352000ED0E0F8E6FAEDD2E7CD33EC332482FB9F
:10036200E4C3CF33CFCE33CECD33CD33DBF37B07F4
:1003720075F00A846004F6081B0AE5F0F6088FF0AF
:10038200740AA4FFACF08EF0740AA42CFEACF050F8
:10039200010C8DF0740AA42CFDE435F0F608DBDEC6
:0303A200740722BB
:1003A50002025EE86480F8E933E83360110460F026
:1003B500ED33EC337009E8FCE9FDEAFEEBFF2204BE
:1003C50060DED3EB9FEA9EE99DE8C2E78CF0C2F7B9
:1003D50095F0400CE8CCF8E9CDF9EACEFAEBCFFB85
:1003E50012022985D0F05804700320D5B3E80470B3
:1003F500075002B2D502026892D5EC0460F7E4CC4E
:10040500C0E0C398F8603B94186008400DD0E0FB4D
:10041500020240E4FBFAC9FC8028E830E406E4C99E
:10042500FBE4CAFCE830E305E4C9CACBFCE85407A1
:100435006010F8C3E913F9EA13FAEB13FBEC13FCAC
:10044500D8F130F52FC3E49CFCEF9BFFEE9AFEED4F
:1004550099FDD0E0FBEF4E4D4C701222DB030202FA
:1004650065EC2CFCEF33FFEE33FEED33FDED30E7AD
:10047500EB020240EF2BFFEE3AFEED39FDD0E0FB3B
:1004850050130BBB0003020268ED13FDEE13FEEFE4
:0804950013FFEC13FC0202400E
:10049D003F8000004120000042C80000447A000067
:1004AD00461C400047C35000497424004B189680E9
:1004BD004CBEBC205A0E1BCA6753C21C749DC5AEE0
:1004CD00FB60065407601C23231204FBEB543860B9
:1004DD00091204E71204F612000EECF8EDF9EEFA2B
:1004ED00EFCB22EB1204F680F1543803241C900458
:1004FD009DFE93FC0EEE93FD0EEE930ECE93FF221A
:03000000020C08E7
:0C0C0800787FE4F6D8FD75816A020C4F7D
:10050D00BB010689828A83E0225002E722BBFE02EC
:09051D00E32289828A83E493221F
:10052600BB010CE58229F582E5833AF583E022508A
:1005360006E92582F8E622BBFE06E92582F8E222D4
:0D054600E58229F582E5833AF583E49322EE
:10055300BB010689828A83F0225002F722BBFE0187
:02056300F32281
:10056500E88FF0A4CC8BF0A42CFCE98EF0A42CFC35
:100575008AF0EDA42CFCEA8EF0A4CDA8F08BF0A4B3
:100585002DCC3825F0FDE98FF0A42CCD35F0FCEB12
:100595008EF0A4FEA9F0EB8FF0A4CFC5F02ECD39D7
:0F05A500FEE43CFCEAA42DCE35F0FDE43CFC2244
:0E05B400C3E49FFFE49EFEE49DFDE49CFC2258
:1005C200FAE6FB0808E6F925F0F618E6CA3AF6223A
:1005D200D083D082F8E4937012740193700DA3A3B8
:1005E20093F8740193F5828883E4737402936860CC
:0605F200EFA3A3A380DFCC
:100C9400EFB40A07740D120C9F740A309811A899C6
:100CA400B8130CC2983098FDA899C298B811F630C0
:070CB40099FDC299F5992298
:100C1400020A67E493A3F8E493A34003F68001F285
:100C240008DFF48029E493A3F85407240CC8C333E1
:100C3400C4540F4420C8834004F456800146F6DFB0
:100C4400E4800B0102040810204080900CBBE47E79
:100C5400019360BCA3FF543F30E509541FFEE493A5
:100C6400A360010ECF54C025E060A840B8E493A36C
:100C7400FAE493A3F8E493A3C8C582C8CAC583CA97
:100C8400F0A3C8C582C8CAC583CADFE9DEE780BE4F
:010CD600001D
:00000001FF
